S01B0000626C696E6B20776974682066756E6374696F6E2E7372656397
S11300000C9434000C943E000C943E000C943E007E
S11300100C943E000C943E000C943E000C943E0064
S11300200C943E000C943E000C943E000C943E0054
S11300300C943E000C943E000C943E000C943E0044
S11300400C943E000C943E000C943E000C943E0034
S11300500C943E000C943E000C943E000C943E0024
S11300600C943E000C943E0011241FBECFEFD8E048
S1130070DEBFCDBF0E9424010C944A010C94000001
S11300808BB181608BB92FEF89E698E121508040D4
S11300909040E1F700C000008BB18E7F8BB92FEF49
S11300A089E698E1215080409040E1F700C00000CB
S11300B08BB182608BB92FEF89E698E121508040A3
S11300C09040E1F700C000008BB18D7F8BB92FEF1A
S11300D089E698E1215080409040E1F700C000009B
S11300E08BB184608BB92FEF89E698E12150804071
S11300F09040E1F700C000008BB18B7F8BB92FEFEC
S113010089E698E1215080409040E1F700C000006A
S11301108BB188608BB92FEF89E698E1215080403C
S11301209040E1F700C000008BB1877F8BB92FEFBF
S113013089E698E1215080409040E1F700C000003A
S113014008958BB188608BB92FEF89E698E121502F
S113015080409040E1F700C000008BB1877F8BB9ED
S11301602FEF89E698E1215080409040E1F700C0EC
S113017000008BB184608BB92FEF89E698E12150A0
S113018080409040E1F700C000008BB18B7F8BB9B9
S11301902FEF89E698E1215080409040E1F700C0BC
S11301A000008BB182608BB92FEF89E698E1215072
S11301B080409040E1F700C000008BB18D7F8BB987
S11301C02FEF89E698E1215080409040E1F700C08C
S11301D000008BB181608BB92FEF89E698E1215043
S11301E080409040E1F700C000008BB18E7F8BB956
S11301F02FEF89E698E1215080409040E1F700C05C
S1130200000008958BB181608BB98BB182608BB98A
S11302108BB184608BB98BB188608BB92FEF89E681
S113022098E1215080409040E1F700C000008BB17C
S11302308E7F8BB98BB18D7F8BB98BB18B7F8BB953
S11302408BB1877F8BB908958FE08AB90E944000F3
S11302502FEF83E294EF215080409040E1F700C0FB
S113026000000E94A1002FEF83E294EF2150804010
S11302709040E1F700C000000E9402012FEF8BE7DD
S113028092E9215080409040E1F700C0000080E0F6
S10B029090E00895F894FFCFFB
S9030000FC
