S018000074776F73776974636864636D6F746F722E7372656328
S11300000C9434000C943E000C943E000C943E007E
S11300100C943E000C943E000C943E000C943E0064
S11300200C943E000C943E000C943E000C943E0054
S11300300C943E000C943E000C943E000C943E0044
S11300400C943E000C943E000C943E000C943E0034
S11300500C943E000C943E000C943E000C943E0024
S11300600C943E000C943E0011241FBECFEFD8E048
S1130070DEBFCDBF0E9440000C9468000C940000C9
S11300808AB18E7F8AB984B18E7F84B98AB1826045
S11300908AB9489B07C08BB182608BB98BB18B7FC7
S11300A08BB906C08BB18D7F8BB98BB18B7F8BB92C
S11300B0189B07C08BB18D7F8BB98BB184608BB9D2
S11300C0E8CF8BB18D7F8BB98BB184708BB9E1CFC5
S10700D0F894FFCFCE
S9030000FC
