S01000004443204D4F544F522E73726563DC
S11300000C9434000C943E000C943E000C943E007E
S11300100C943E000C943E000C943E000C943E0064
S11300200C943E000C943E000C943E000C943E0054
S11300300C943E000C943E000C943E000C943E0044
S11300400C943E000C943E000C943E000C943E0034
S11300500C943E000C943E000C943E000C943E0024
S11300600C943E000C943E0011241FBECFEFD8E048
S1130070DEBFCDBF0E9440000C9479000C940000B8
S113008083E08AB98BB181608BB98BB18D7F8BB9D9
S11300902FEF8BE792E9215080409040E1F700C0B8
S11300A000008BB18E7F8BB92FEF8BE792E9215043
S11300B080409040E1F700C000008BB182608BB9B2
S11300C08BB18E7F8BB92FEF8BE792E92150804063
S11300D09040E1F700C000008BB18E7F8BB92FEF09
S11300E08BE792E9215080409040E1F700C0000086
S10900F0C9CFF894FFCF14
S9030000FC
