:100000000C9434000C943E000C943E000C943E0082
:100010000C943E000C943E000C943E000C943E0068
:100020000C943E000C943E000C943E000C943E0058
:100030000C943E000C943E000C943E000C943E0048
:100040000C943E000C943E000C943E000C943E0038
:100050000C943E000C943E000C943E000C943E0028
:100060000C943E000C943E0011241FBECFEFD8E04C
:10007000DEBFCDBF0E948D000C9498000C94000050
:1000800085B1816085B92FEF8BE792E921508040DF
:100090009040E1F700C0000085B18E7F85B92FEF59
:1000A00089E698E1215080409040E1F700C00000CF
:1000B000089585B1826085B92FEF83E294EF2150D6
:1000C00080409040E1F700C0000085B18D7F85B988
:1000D0002FEF89E698E1215080409040E1F700C081
:1000E0000000089585B1846085B92FEF33E284EF75
:1000F00090E02150304080409040D9F700C000008F
:1001000085B18B7F85B92FEF39E688E121503040EA
:100110008040E1F700C00000089587E084B90E94A4
:1001200040000E9459000E9440000E947200F7CFD8
:04013000F894FFCF71
:00000001FF
