:100000000C9434000C943E000C943E000C943E0082
:100010000C943E000C943E000C943E000C943E0068
:100020000C943E000C943E000C943E000C943E0058
:100030000C943E000C943E000C943E000C943E0048
:100040000C943E000C943E000C943E000C943E0038
:100050000C943E000C943E000C943E000C943E0028
:100060000C943E000C943E0011241FBECFEFD8E04C
:10007000DEBFCDBF0E9440000C9474000C940000C1
:100080008AB182608AB98AB184608AB98BB1826090
:100090008BB98BB18B7F8BB92FEF83E294EF21501B
:1000A00080409040E1F700C000008BB18D7F8BB99C
:1000B0008BB18B7F8BB92FEF8BE792E9215080407A
:1000C0009040E1F700C000008BB184608BB98BB128
:1000D0008D7F8BB92FEF83E294EF215080409040C9
:0C00E000E1F700C00000D2CFF894FFCF81
:00000001FF
